{
  "_format": "hh-sol-artifact-1",
  "contractName": "CeloDIDRegistry",
  "sourceName": "contracts/RegisterDId.sol",
  "abi": [
    {
      "anonymous": false,
      "inputs": [
        {
          "indexed": true,
          "internalType": "address",
          "name": "wallet",
          "type": "address"
        },
        {
          "indexed": false,
          "internalType": "bytes32",
          "name": "newDid",
          "type": "bytes32"
        }
      ],
      "name": "DIDChanged",
      "type": "event"
    },
    {
      "anonymous": false,
      "inputs": [
        {
          "indexed": true,
          "internalType": "address",
          "name": "wallet",
          "type": "address"
        },
        {
          "indexed": false,
          "internalType": "bytes32",
          "name": "did",
          "type": "bytes32"
        }
      ],
      "name": "DIDSet",
      "type": "event"
    },
    {
      "anonymous": false,
      "inputs": [
        {
          "indexed": true,
          "internalType": "address",
          "name": "wallet",
          "type": "address"
        }
      ],
      "name": "DIDVerified",
      "type": "event"
    },
    {
      "inputs": [
        {
          "internalType": "address",
          "name": "_address",
          "type": "address"
        },
        {
          "internalType": "bytes32",
          "name": "_did",
          "type": "bytes32"
        }
      ],
      "name": "authenticateUser",
      "outputs": [
        {
          "internalType": "bool",
          "name": "",
          "type": "bool"
        }
      ],
      "stateMutability": "view",
      "type": "function"
    },
    {
      "inputs": [
        {
          "internalType": "address",
          "name": "_address",
          "type": "address"
        },
        {
          "internalType": "bytes32",
          "name": "_currentDID",
          "type": "bytes32"
        },
        {
          "internalType": "string",
          "name": "_newDID",
          "type": "string"
        },
        {
          "internalType": "string",
          "name": "_identifier",
          "type": "string"
        },
        {
          "internalType": "string",
          "name": "_newIdentifier",
          "type": "string"
        }
      ],
      "name": "changeDID",
      "outputs": [
        {
          "internalType": "bytes32",
          "name": "",
          "type": "bytes32"
        }
      ],
      "stateMutability": "nonpayable",
      "type": "function"
    },
    {
      "inputs": [
        {
          "internalType": "address",
          "name": "_address",
          "type": "address"
        },
        {
          "internalType": "string",
          "name": "_identifier",
          "type": "string"
        }
      ],
      "name": "getDIDByAddress",
      "outputs": [
        {
          "internalType": "bytes32",
          "name": "",
          "type": "bytes32"
        }
      ],
      "stateMutability": "view",
      "type": "function"
    },
    {
      "inputs": [
        {
          "internalType": "address",
          "name": "_address",
          "type": "address"
        },
        {
          "internalType": "string",
          "name": "_did",
          "type": "string"
        },
        {
          "internalType": "string",
          "name": "_identifier",
          "type": "string"
        }
      ],
      "name": "registerDID",
      "outputs": [
        {
          "internalType": "bytes32",
          "name": "",
          "type": "bytes32"
        }
      ],
      "stateMutability": "nonpayable",
      "type": "function"
    },
    {
      "inputs": [
        {
          "internalType": "address",
          "name": "_address",
          "type": "address"
        },
        {
          "internalType": "bytes32",
          "name": "_did",
          "type": "bytes32"
        },
        {
          "internalType": "string",
          "name": "_identifier",
          "type": "string"
        }
      ],
      "name": "verifyDID",
      "outputs": [
        {
          "internalType": "bool",
          "name": "",
          "type": "bool"
        }
      ],
      "stateMutability": "nonpayable",
      "type": "function"
    }
  ],
  "bytecode": "0x608060405234801561001057600080fd5b50611923806100206000396000f3fe608060405234801561001057600080fd5b50600436106100575760003560e01c80631bc9a7421461005c5780633125e6e71461008c5780637b4c1ee6146100bc578063c01df911146100ec578063dc12794b1461011c575b600080fd5b61007660048036038101906100719190610fe3565b61014c565b60405161008391906113eb565b60405180910390f35b6100a660048036038101906100a19190610f34565b6104db565b6040516100b391906113d0565b60405180910390f35b6100d660048036038101906100d1919061110e565b610654565b6040516100e391906113eb565b60405180910390f35b610106600480360381019061010191906110b2565b6108f3565b60405161011391906113eb565b60405180910390f35b61013660048036038101906101319190610f74565b610a94565b60405161014391906113d0565b60405180910390f35b6000600160008773ffffffffffffffffffffffffffffffffffffffff1673ffffffffffffffffffffffffffffffffffffffff16815260200190815260200160002060009054906101000a900460ff166101da576040517f08c379a00000000000000000000000000000000000000000000000000000000081526004016101d1906114e6565b60405180910390fd5b846000808873ffffffffffffffffffffffffffffffffffffffff1673ffffffffffffffffffffffffffffffffffffffff168152602001908152602001600020600001541461025d576040517f08c379a000000000000000000000000000000000000000000000000000000000815260040161025490611406565b60405180910390fd5b6000808773ffffffffffffffffffffffffffffffffffffffff1673ffffffffffffffffffffffffffffffffffffffff16815260200190815260200160002060020160009054906101000a900460ff166102eb576040517f08c379a00000000000000000000000000000000000000000000000000000000081526004016102e290611486565b60405180910390fd5b826040516020016102fc91906113a2565b604051602081830303815290604052805190602001206000808873ffffffffffffffffffffffffffffffffffffffff1673ffffffffffffffffffffffffffffffffffffffff16815260200190815260200160002060010160405160200161036391906113b9565b60405160208183030381529060405280519060200120146103b9576040517f08c379a00000000000000000000000000000000000000000000000000000000081526004016103b090611426565b60405180910390fd5b6000846040516020016103cc91906113a2565b604051602081830303815290604052805190602001209050806000808973ffffffffffffffffffffffffffffffffffffffff1673ffffffffffffffffffffffffffffffffffffffff16815260200190815260200160002060000181905550826000808973ffffffffffffffffffffffffffffffffffffffff1673ffffffffffffffffffffffffffffffffffffffff168152602001908152602001600020600101908051906020019061047f929190610df7565b508673ffffffffffffffffffffffffffffffffffffffff167f52d3019c7bec7a920764c00030a3b84bf246be30fb2f17b060d74b6dcdd8dda2826040516104c691906113eb565b60405180910390a28091505095945050505050565b6000600160008473ffffffffffffffffffffffffffffffffffffffff1673ffffffffffffffffffffffffffffffffffffffff16815260200190815260200160002060009054906101000a900460ff16610569576040517f08c379a0000000000000000000000000000000000000000000000000000000008152600401610560906114e6565b60405180910390fd5b6000808473ffffffffffffffffffffffffffffffffffffffff1673ffffffffffffffffffffffffffffffffffffffff16815260200190815260200160002060020160009054906101000a900460ff166105f7576040517f08c379a00000000000000000000000000000000000000000000000000000000081526004016105ee90611466565b60405180910390fd5b816000808573ffffffffffffffffffffffffffffffffffffffff1673ffffffffffffffffffffffffffffffffffffffff168152602001908152602001600020600001541415610649576001905061064e565b600090505b92915050565b6000600160008573ffffffffffffffffffffffffffffffffffffffff1673ffffffffffffffffffffffffffffffffffffffff16815260200190815260200160002060009054906101000a900460ff16156106e3576040517f08c379a00000000000000000000000000000000000000000000000000000000081526004016106da906114a6565b60405180910390fd5b6000808573ffffffffffffffffffffffffffffffffffffffff1673ffffffffffffffffffffffffffffffffffffffff16815260200190815260200160002060020160009054906101000a900460ff1615610772576040517f08c379a000000000000000000000000000000000000000000000000000000000815260040161076990611446565b60405180910390fd5b60008360405160200161078591906113a2565b6040516020818303038152906040528051906020012090506040518060600160405280828152602001848152602001600015158152506000808773ffffffffffffffffffffffffffffffffffffffff1673ffffffffffffffffffffffffffffffffffffffff16815260200190815260200160002060008201518160000155602082015181600101908051906020019061081f929190610df7565b5060408201518160020160006101000a81548160ff02191690831515021790555090505060018060008773ffffffffffffffffffffffffffffffffffffffff1673ffffffffffffffffffffffffffffffffffffffff16815260200190815260200160002060006101000a81548160ff0219169083151502179055508473ffffffffffffffffffffffffffffffffffffffff167f67e24219f67db1185a3e87cf77908d0d3d7d48a4a85f9b01da989045dd714e3c826040516108e091906113eb565b60405180910390a2809150509392505050565b60008060001b6000808573ffffffffffffffffffffffffffffffffffffffff1673ffffffffffffffffffffffffffffffffffffffff16815260200190815260200160002060000154141561097c576040517f08c379a0000000000000000000000000000000000000000000000000000000008152600401610973906114c6565b60405180910390fd5b8160405160200161098d91906113a2565b604051602081830303815290604052805190602001206000808573ffffffffffffffffffffffffffffffffffffffff1673ffffffffffffffffffffffffffffffffffffffff1681526020019081526020016000206001016040516020016109f491906113b9565b6040516020818303038152906040528051906020012014610a4a576040517f08c379a0000000000000000000000000000000000000000000000000000000008152600401610a4190611426565b60405180910390fd5b6000808473ffffffffffffffffffffffffffffffffffffffff1673ffffffffffffffffffffffffffffffffffffffff16815260200190815260200160002060000154905092915050565b6000600160008573ffffffffffffffffffffffffffffffffffffffff1673ffffffffffffffffffffffffffffffffffffffff16815260200190815260200160002060009054906101000a900460ff16610b22576040517f08c379a0000000000000000000000000000000000000000000000000000000008152600401610b19906114e6565b60405180910390fd5b826000808673ffffffffffffffffffffffffffffffffffffffff1673ffffffffffffffffffffffffffffffffffffffff1681526020019081526020016000206000015414610ba5576040517f08c379a0000000000000000000000000000000000000000000000000000000008152600401610b9c90611506565b60405180910390fd5b6000808573ffffffffffffffffffffffffffffffffffffffff1673ffffffffffffffffffffffffffffffffffffffff16815260200190815260200160002060020160009054906101000a900460ff1615610c34576040517f08c379a0000000000000000000000000000000000000000000000000000000008152600401610c2b90611446565b60405180910390fd5b81604051602001610c4591906113a2565b604051602081830303815290604052805190602001206000808673ffffffffffffffffffffffffffffffffffffffff1673ffffffffffffffffffffffffffffffffffffffff168152602001908152602001600020600101604051602001610cac91906113b9565b6040516020818303038152906040528051906020012014610d02576040517f08c379a0000000000000000000000000000000000000000000000000000000008152600401610cf990611426565b60405180910390fd5b60016000808673ffffffffffffffffffffffffffffffffffffffff1673ffffffffffffffffffffffffffffffffffffffff16815260200190815260200160002060020160006101000a81548160ff0219169083151502179055508373ffffffffffffffffffffffffffffffffffffffff167f3237d783bf49403bfb11e39613459b67bd09af79c42fd4f83806da548b2e902460405160405180910390a26000808573ffffffffffffffffffffffffffffffffffffffff1673ffffffffffffffffffffffffffffffffffffffff16815260200190815260200160002060020160009054906101000a900460ff1690509392505050565b828054610e0390611642565b90600052602060002090601f016020900481019282610e255760008555610e6c565b82601f10610e3e57805160ff1916838001178555610e6c565b82800160010185558215610e6c579182015b82811115610e6b578251825591602001919060010190610e50565b5b509050610e799190610e7d565b5090565b5b80821115610e96576000816000905550600101610e7e565b5090565b6000610ead610ea88461154b565b611526565b905082815260208101848484011115610ec957610ec8611708565b5b610ed4848285611600565b509392505050565b600081359050610eeb816118bf565b92915050565b600081359050610f00816118d6565b92915050565b600082601f830112610f1b57610f1a611703565b5b8135610f2b848260208601610e9a565b91505092915050565b60008060408385031215610f4b57610f4a611712565b5b6000610f5985828601610edc565b9250506020610f6a85828601610ef1565b9150509250929050565b600080600060608486031215610f8d57610f8c611712565b5b6000610f9b86828701610edc565b9350506020610fac86828701610ef1565b925050604084013567ffffffffffffffff811115610fcd57610fcc61170d565b5b610fd986828701610f06565b9150509250925092565b600080600080600060a08688031215610fff57610ffe611712565b5b600061100d88828901610edc565b955050602061101e88828901610ef1565b945050604086013567ffffffffffffffff81111561103f5761103e61170d565b5b61104b88828901610f06565b935050606086013567ffffffffffffffff81111561106c5761106b61170d565b5b61107888828901610f06565b925050608086013567ffffffffffffffff8111156110995761109861170d565b5b6110a588828901610f06565b9150509295509295909350565b600080604083850312156110c9576110c8611712565b5b60006110d785828601610edc565b925050602083013567ffffffffffffffff8111156110f8576110f761170d565b5b61110485828601610f06565b9150509250929050565b60008060006060848603121561112757611126611712565b5b600061113586828701610edc565b935050602084013567ffffffffffffffff8111156111565761115561170d565b5b61116286828701610f06565b925050604084013567ffffffffffffffff8111156111835761118261170d565b5b61118f86828701610f06565b9150509250925092565b6111a2816115ca565b82525050565b6111b1816115d6565b82525050565b60006111c282611591565b6111cc81856115ad565b93506111dc81856020860161160f565b80840191505092915050565b600081546111f581611642565b6111ff81866115ad565b9450600182166000811461121a576001811461122b5761125e565b60ff1983168652818601935061125e565b6112348561157c565b60005b8381101561125657815481890152600182019150602081019050611237565b838801955050505b50505092915050565b600061127460138361159c565b915061127f82611728565b602082019050919050565b600061129760128361159c565b91506112a282611751565b602082019050919050565b60006112ba60238361159c565b91506112c58261177a565b604082019050919050565b60006112dd60148361159c565b91506112e8826117c9565b602082019050919050565b6000611300600c8361159c565b915061130b826117f2565b602082019050919050565b6000611323601a8361159c565b915061132e8261181b565b602082019050919050565b600061134660168361159c565b915061135182611844565b602082019050919050565b600061136960168361159c565b91506113748261186d565b602082019050919050565b600061138c600b8361159c565b915061139782611896565b602082019050919050565b60006113ae82846111b7565b915081905092915050565b60006113c582846111e8565b915081905092915050565b60006020820190506113e56000830184611199565b92915050565b600060208201905061140060008301846111a8565b92915050565b6000602082019050818103600083015261141f81611267565b9050919050565b6000602082019050818103600083015261143f8161128a565b9050919050565b6000602082019050818103600083015261145f816112ad565b9050919050565b6000602082019050818103600083015261147f816112d0565b9050919050565b6000602082019050818103600083015261149f816112f3565b9050919050565b600060208201905081810360008301526114bf81611316565b9050919050565b600060208201905081810360008301526114df81611339565b9050919050565b600060208201905081810360008301526114ff8161135c565b9050919050565b6000602082019050818103600083015261151f8161137f565b9050919050565b6000611530611541565b905061153c8282611674565b919050565b6000604051905090565b600067ffffffffffffffff821115611566576115656116d4565b5b61156f82611717565b9050602081019050919050565b60008190508160005260206000209050919050565b600081519050919050565b600082825260208201905092915050565b600081905092915050565b60006115c3826115e0565b9050919050565b60008115159050919050565b6000819050919050565b600073ffffffffffffffffffffffffffffffffffffffff82169050919050565b82818337600083830152505050565b60005b8381101561162d578082015181840152602081019050611612565b8381111561163c576000848401525b50505050565b6000600282049050600182168061165a57607f821691505b6020821081141561166e5761166d6116a5565b5b50919050565b61167d82611717565b810181811067ffffffffffffffff8211171561169c5761169b6116d4565b5b80604052505050565b7f4e487b7100000000000000000000000000000000000000000000000000000000600052602260045260246000fd5b7f4e487b7100000000000000000000000000000000000000000000000000000000600052604160045260246000fd5b600080fd5b600080fd5b600080fd5b600080fd5b6000601f19601f8301169050919050565b7f496e76616c69642063757272656e742044494400000000000000000000000000600082015250565b7f496e76616c6964206964656e7469666965720000000000000000000000000000600082015250565b7f44494420616c7265616479207265676973746572656420616e6420766572696660008201527f6965640000000000000000000000000000000000000000000000000000000000602082015250565b7f55736572206973206e6f74207665726966696564000000000000000000000000600082015250565b7f4e6f742076657269666965640000000000000000000000000000000000000000600082015250565b7f4164647265737320616c72656164792072656769737465726564000000000000600082015250565b7f4164647265737320646f6573206e6f7420657869737400000000000000000000600082015250565b7f41646472657373206e6f74207265676973746572656400000000000000000000600082015250565b7f496e76616c696420444944000000000000000000000000000000000000000000600082015250565b6118c8816115b8565b81146118d357600080fd5b50565b6118df816115d6565b81146118ea57600080fd5b5056fea2646970667358221220c9b353b2eaf2083b73ab8f78138b1ca8b43ead09b879160e487bf9460c8dc42d64736f6c63430008060033",
  "linkReferences": {},
  "deployedLinkReferences": {}
}